{
  "_format": "hh-sol-artifact-1",
  "contractName": "DonationRegistry",
  "sourceName": "contracts/DonationRegistry.sol",
  "abi": [
    {
      "anonymous": false,
      "inputs": [
        {
          "indexed": true,
          "internalType": "address",
          "name": "submitter",
          "type": "address"
        },
        {
          "indexed": false,
          "internalType": "string",
          "name": "entity",
          "type": "string"
        },
        {
          "indexed": false,
          "internalType": "string",
          "name": "entityId",
          "type": "string"
        },
        {
          "indexed": false,
          "internalType": "bytes32",
          "name": "hash",
          "type": "bytes32"
        },
        {
          "indexed": false,
          "internalType": "uint256",
          "name": "timestamp",
          "type": "uint256"
        }
      ],
      "name": "Record",
      "type": "event"
    },
    {
      "inputs": [
        {
          "internalType": "string",
          "name": "entity",
          "type": "string"
        },
        {
          "internalType": "string",
          "name": "entityId",
          "type": "string"
        },
        {
          "internalType": "bytes32",
          "name": "hash",
          "type": "bytes32"
        }
      ],
      "name": "record",
      "outputs": [],
      "stateMutability": "nonpayable",
      "type": "function"
    }
  ],
  "bytecode": "0x608060405234801561001057600080fd5b506103f0806100206000396000f3fe608060405234801561001057600080fd5b506004361061002b5760003560e01c806398c04faa14610030575b600080fd5b61004a60048036038101906100459190610235565b61004c565b005b3373ffffffffffffffffffffffffffffffffffffffff167f1a858758d18fa906e060a9bd25f6f98b8363372b64e7f045aacfd043d662d7e0848484426040516100989493929190610367565b60405180910390a2505050565b6000604051905090565b600080fd5b600080fd5b600080fd5b600080fd5b6000601f19601f8301169050919050565b7f4e487b7100000000000000000000000000000000000000000000000000000000600052604160045260246000fd5b61010c826100c3565b810181811067ffffffffffffffff8211171561012b5761012a6100d4565b5b80604052505050565b600061013e6100a5565b905061014a8282610103565b919050565b600067ffffffffffffffff82111561016a576101696100d4565b5b610173826100c3565b9050602081019050919050565b82818337600083830152505050565b60006101a261019d8461014f565b610134565b9050828152602081018484840111156101be576101bd6100be565b5b6101c9848285610180565b509392505050565b600082601f8301126101e6576101e56100b9565b5b81356101f684826020860161018f565b91505092915050565b6000819050919050565b610212816101ff565b811461021d57600080fd5b50565b60008135905061022f81610209565b92915050565b60008060006060848603121561024e5761024d6100af565b5b600084013567ffffffffffffffff81111561026c5761026b6100b4565b5b610278868287016101d1565b935050602084013567ffffffffffffffff811115610299576102986100b4565b5b6102a5868287016101d1565b92505060406102b686828701610220565b9150509250925092565b600081519050919050565b600082825260208201905092915050565b60005b838110156102fa5780820151818401526020810190506102df565b60008484015250505050565b6000610311826102c0565b61031b81856102cb565b935061032b8185602086016102dc565b610334816100c3565b840191505092915050565b610348816101ff565b82525050565b6000819050919050565b6103618161034e565b82525050565b600060808201905081810360008301526103818187610306565b905081810360208301526103958186610306565b90506103a4604083018561033f565b6103b16060830184610358565b9594505050505056fea26469706673582212207cd16f1a247c5e7aad22d61913ac5308ac277a9113dd9e810cf50d3386dd5bc464736f6c63430008130033",
  "linkReferences": {},
  "deployedLinkReferences": {}
}